:020000040000FA
:10000000600200105101000055010000570100007E
:10001000590100005B0100005D01000000000000CC
:100020000000000000000000000000005F01000070
:100030006101000000000000630100006501000094
:100040006701000067010000670100006701000010
:100050006701000067010000670100006701000000
:1000600067010000670100006701000067010000F0
:1000700067010000670100006701000067010000E0
:1000800067010000670100006701000067010000D0
:1000900067010000670100006701000067010000C0
:1000A00067010000670100006701000067010000B0
:1000B00067010000670100006701000067010000A0
:1000C00067010000670100006701000000F002F80E
:1000D00000F02EF80AA090E8000C82448344AAF1B4
:1000E0000107DA4501D100F023F8AFF2090EBAE8B2
:1000F0000F0013F0010F18BFFB1A43F0010318475C
:10010000E8010000F801000000230024002500267B
:10011000103A28BF78C1FBD8520728BF30C148BF6A
:100120000B6070471FB500F0D8F81FBD10B510BDAB
:1001300000F093F81146FFF7F5FF00F023F800F008
:10014000B1F803B4FFF7F2FF03BC00F0BBF8000006
:1001500008480047FEE7FEE7FEE7FEE7FEE7FEE7AA
:10016000FEE7FEE7FEE7FEE703480449024A044BC8
:1001700070470000CD000000600000106002001019
:10018000600000103248006E40F080603049086620
:100190000846006A40F0007008620846006A40F0B5
:1001A000806008620846006840F001000860084668
:1001B000006840F4006008600846006840F4805021
:1001C00008600846006840F4005008600846806FE8
:1001D00040F0806088670846806B40F0007088635C
:1001E0000846806B40F0806088630846806940F074
:1001F000010088610846C06940F00200C8610846F5
:10020000C06D40F40060C8650846C06D40F4805081
:10021000C8650846C06D40F40050C865084640698E
:1002200010F0020F11D10846406900F002000128C9
:1002300005D10846806D40F40060886505E00448FB
:10024000806D40F40050024988650020704700002E
:1002500000C00920704770477047754600F028F8C5
:10026000AE4605006946534620F00700854618B0A3
:1002700020B5FFF779FFBDE820404FF000064FF0B2
:1002800000074FF000084FF0000B21F00701AC46CB
:10029000ACE8C009ACE8C009ACE8C009ACE8C009EA
:1002A0008D4670470446AFF300802046FFF749FFB4
:1002B0000048704700000010014870477047000078
:1002C0000400001003494FF01800ABBE7047000057
:1002D0000900000026000200704710B5FFF7ECFF90
:1002E0004FF00001016010BD00030000000000108D
:1002F000600200000801000000000000FFFFFFFF97
:0400000500000151A5
:00000001FF
